:020000040800F2
:1000000098A500200D020008DF4300082B1300080C
:10001000DD430008ED050008354F00080000000032
:10002000000000000000000000000000E3430008A2
:10003000EF05000800000000E1430008E543000868
:1000400027020008270200082702000827020008EC
:1000500027020008270200082702000827020008DC
:1000600027020008270200082702000827020008CC
:1000700027020008270200082702000827020008BC
:1000800027020008270200082702000827020008AC
:10009000270200082702000827020008270200089C
:1000A000270200082702000827020008270200088C
:1000B000270200082702000827020008270200087C
:1000C000270200082702000827020008270200086C
:1000D000270200082702000827020008270200085C
:1000E000270200082702000827020008270200084C
:1000F000270200082702000827020008270200083C
:10010000270200082702000827020008270200082B
:1001100027020008270200084944000827020008B7
:10012000270200082702000827020008270200080B
:1001300000F002F800F05AF80AA090E8000C82449F
:100140008344AAF10107DA4501D100F04FF8AFF27C
:10015000090EBAE80F0013F0010F18BFFB1A43F0A5
:100160000103184778DF020098DF02000A444FF0CD
:10017000000C10F8013B13F0070408BF10F8014B06
:100180001D1108BF10F8015B641E05D010F8016B4B
:10019000641E01F8016BF9D113F0080F1EBF10F8AF
:1001A000014BAD1C0C1B09D16D1E58BF01F801CBD2
:1001B000FAD505E014F8016B01F8016B6D1EF9D555
:1001C0009142D6D37047000000230024002500266A
:1001D000103A28BF78C1FBD8520728BF30C148BFAA
:1001E0000B6070471FB51FBD10B510BD00F066F95C
:1001F0001146FFF7F7FF20F0C3FB00F084F903B4CA
:10020000FFF7F2FF03BC00F087F9000009488047C0
:1002100009480047FEE7FEE7FEE7FEE7FEE7FEE7E8
:10022000FEE7FEE7FEE7FEE704480549054A064B00
:10023000704700004744000831010008989F0020E3
:1002400098A5002098A1002098A1002053EA020C54
:1002500000F069802DE9F04B4FF00006002B1FBF26
:10026000B3FA83F503FA05F424FA05F65E4012BFEB
:100270001643B2FA82F502FA05F4C5F120051EBF55
:1002800022FA05FC44EA0C04203556EA044C4FEAF5
:10029000144418BF641C4FF000084FF0000990424E
:1002A00071EB030C39D3002919BFB1FA81F701FAB8
:1002B00007F6B0FA80F700FA07F6C7F120071EBF6D
:1002C00020FA07FC46EA0C062037B6FBF4FCA7EB45
:1002D0000507103F07F01F0BCBF120060CFA0BFBB4
:1002E0002CFA06F644BFB3460026202FA4BF5E4674
:1002F0004FF0000B5BEA060C08BF4FF0010B19EB47
:100300000B09ABFB027C48EB0608C01B06FB02CCCA
:100310000BFB03CC71EB0C01C1E70B4602464146D7
:100320004846BDE8F08B13B54FF000004FF00001D8
:10033000AFF30080BDE81C40704740EA010302466D
:1003400030B59B0710D14FF0013400E008C208C956
:100350001D1B9D4315EAC41FF8D013F0FF0102F8DE
:10036000011B0DD01B0AF8E711F8013B002B02F826
:10037000013B05D011F8013B002B02F8013BF3D102
:1003800030BD10B5431C02E010F8011B71B18107AC
:10039000FAD14FF0013202C88C1A8C4314EAC21110
:1003A000F9D0C01A0A0603D0C01E10BDC01A10BD75
:1003B0000A0401D0801E10BD0902FCD0401E10BDF1
:1003C0004FF0000200B5134694469646203922BFEE
:1003D000A0E80C50A0E80C50B1F12001BFF4F7AF39
:1003E000090728BFA0E80C5048BF0CC05DF804EB1B
:1003F000890028BF40F8042B08BF704748BF20F889
:10040000022B11F0804F18BF00F8012B704700003D
:100410004FF0013C50F8042B51F8043B9A4221D193
:10042000A2EB0C03934313EACC1317D150F8042B1F
:1004300051F8043B9A4215D1A2EB0C03934313EA03
:10044000CC130BD150F8042B51F8043B9A4209D13C
:10045000A2EB0C03934313EACC13DBD04FF0000064
:10046000704700BFD01A01BAB1FA81F101F018014A
:1004700022FA01F0CB40C1F12001DBB2C0B2C01AB8
:100480002CFA01F3D11A914311EAC311E6D1704756
:1004900070477047704710B500F008F8006810BD4D
:1004A00010B5044600F002F8046010BD0048704723
:1004B000349F002000487047349F00207546FFF7A6
:1004C000F9FFAE4605006946534620F00700854611
:1004D00018B020B5FFF7A8FEBDE820404FF0000699
:1004E0004FF000074FF000084FF0000B21F007011C
:1004F000AC46ACE8C009ACE8C009ACE8C009ACE85F
:10050000C0098D46704710B50446AFF30080204601
:10051000BDE81040FFF773BE01491820ABBEFEE7EF
:1005200026000200704700F021BF70B514460D464A
:10053000064608E03046711C8EB200F007F8641ED3
:1005400005F8010BA4B2002CF4D170BD10B504461F
:1005500000F0B6FF200AA02101EB4000C0B200F07D
:100560007FFF00F0EFFFE0B200F07AFF00F0EAFF5B
:1005700000F0A6FFA12000F073FF00F0E3FF0020D1
:1005800000F038FF044600F0BBFF204610BD70B5F8
:1005900016460C46054606E02178284600F007F886
:1005A0006D1CADB2641C761EB6B2F5D270BD70B5CE
:1005B0000D46044600F084FF200AA02101EB400014
:1005C000C0B200F04DFF00F0BDFFE0B200F048FF08
:1005D00000F0B8FF284600F043FF00F0B3FF00F042
:1005E0008FFFBDE870400A2007F09ABDFEE7704714
:1005F00072B6FEE730B5B3F5804F05D06FF07041AD
:1006000040F82210002030BD8C690B688D682343B0
:100610004C688989240144EA0524234343EA0141C3
:1006200050F82230014C23401943E9E70000F0CF95
:1006300010B50A6850F8223023F0010340F8223048
:100640008C68082C23D000234A682243CC681C43C2
:100650000B6922431A434B690E4C1A43CB691A4368
:100660000B6A1A434B6A1A438B6A1A43CB6A1A43C2
:100670000B6B1A438B6913434A6B09681A4350F892
:100680002130A343134340F82130002010BD402304
:10069000DAE700007FFF0F0030B5D1E9003443EA0C
:1006A00004138C688D89240244EA054423430C8A90
:1006B000094D00EB820005EB045423430C7D6D01D2
:1006C00005EB0464896923430B43416801F0404111
:1006D0000B434360002030BD0000F0FF70B50446BE
:1006E00000F050F90546601C02D00448007804442C
:1006F00000F048F9401BA042FAD370BD080000206A
:1007000030B585B00020009001900290039017480A
:100710000168002927D1012101601548416941F490
:10072000807141614069022400F48070049041F2BC
:100730000100CDE900040325694603950D4800F04A
:100740001FF84FF68070CDE90004694603950A480A
:1007500000F016F84CF23370CDE9000469460395B9
:10076000064800F00DF805B030BD00000000002084
:100770000010024000200140001801400014014018
:100780002DE9F84FDFF8C891002409F1040A0AF1B5
:10079000040B23460F270BF1040ED1E00125A540E1
:1007A00006EA0502AA4276D1DFF8A8C14E68A6EB98
:1007B0000C0866452BD00DDC032E34D005DC36B397
:1007C000012E19D0022E2FD11BE0112E16D0122E81
:1007D0002AD119E0B8F5881F19D006DCB8F5803F9A
:1007E00015D0B8F5801F1FD111E0B8F5001F0ED04D
:1007F000B8F5041F18D10AE0CB6815E0CB681B1DC3
:1008000012E0CB6808330FE0CB680C330CE08B6848
:100810002BB1012B4FF0080303D0456104E0042302
:1008200002E0056100E00023FF2A01D8064601E04E
:1008300000F104064FEA840501D9A5F12005D6F898
:10084000008007FA05FC28EA0C0803FA05F548EAD7
:100850000508C6F800804D68ED0070D53E4DAE69C4
:1008600046F00106AE61AD6924F0030605F001050E
:1008700000953A4D06EB050CDCF80850A607360F3C
:1008800007FA06F825EA0805DFF8D480404503D1C9
:100890004FF0000825E052E0DFF8C880404502D163
:1008A0004FF001081DE0DFF8C080404502D14FF055
:1008B000020816E0DFF8B480404502D14FF003088B
:1008C0000FE0DFF8AC80404502D14FF0040808E0AB
:1008D000DFF8A080404502D14FF0050801E04FF05D
:1008E000060808FA06F848EA0508CCF808804D68BA
:1008F000D9F80060ED034D4601D5164300E096435C
:100900002E604D68DAF80060AD03554601D51643F8
:1009100000E096432E604D68DBF80060ED025D4616
:1009200001D5164300E096432E604D68DEF8006066
:10093000AD02754601D5164300E096432E60641C57
:100940000A681646E2407FF429AFBDE8F88F000040
:10095000000401400000111000100240000001409E
:1009600000080140000C014000100140001401404B
:1009700000180140001C01400AB1016170470904E0
:10098000FBE7000001488068704700000800002075
:100990000248816802781144816070470800002095
:1009A000074810B5016841F010010160032000F014
:1009B00075F80F2000F006F800F024F8002010BDB4
:1009C0000020024070B50D4D04464FF47A7128782E
:1009D000B1FBF0F00A490968B1FBF0F000F00CFB44
:1009E00048B9102C07D200222146501E00F036F8DC
:1009F00000206C6070BD012070BD00000800002068
:100A0000140000200C4808B5816941F001018161A2
:100A1000816901F001010091C16941F08051C1611A
:100A2000C06900F0805000900448416821F0E06106
:100A300041F00071416008BD00100240000001401B
:100A4000002809DB00F01F020121914040098000CD
:100A500000F1E020C0F8001170470000F0B40E4B28
:100A60001B680C46C3F30223C3F10705042D00D90C
:100A70000425191D072901D2002300E0DB1E0126F1
:100A800006FA05F1491E214099409E40761E164007
:100A90003143F0BC04F04FBA0CED00E0064900F021
:100AA000070208684FF6FF03184040EA0220034A95
:100AB00010430860704700000CED00E00000FA05EC
:100AC0002DE9F0470F46050061D0434E306800F035
:100AD0000700B84209D2306820F007003843306080
:100AE000306800F00700B84251D128683B4C8107BC
:100AF00012D5400703D5606840F4E0606060287854
:100B0000000703D5606840F4605060606068A968C1
:100B100020F0F000084360602878C00728D068689B
:100B2000012810D02168022810D0890700292EDA68
:100B3000616821F0030101436160FFF723FF8046F4
:100B400041F288390DE021688903EFE78901EDE77B
:100B5000FFF718FFA0EB0801494502D90320BDE8C3
:100B6000F0876068696800F00C00B0EB810FEFD18E
:100B7000306800F00700B8420BD9306820F0070059
:100B800038433060306800F00700B84201D00120DF
:100B9000E5E72878400705D56068E96820F4E0605B
:100BA000084360602878000706D56068296920F44A
:100BB000605040EAC100606000F018F86168084ABF
:100BC000C1F30311515CC84006490860064800683B
:100BD000FFF7F8FE0020C2E70020024000100240AC
:100BE00042540208140000200C00002012A185B01D
:100BF0000FC98DE80F0014A0144A006804905168D2
:100C0000134801F00C03042B10D0082B0ED1C1F3B4
:100C10008343C9031DF803000AD5516804AAC1F330
:100C20004041515C0A4A5043B0FBF1F005B07047B7
:100C300008494843FAE700000203040506070809CB
:100C40000A0B0C0D0E0F10100102000000100240E4
:100C500000127A0000093D002DE9F84F040070D021
:100C60002078C04DC00749D06868C0F381000128D2
:100C700007D06868C0F38100022809D16868C00302
:100C800006D52868800339D560680028E7D035E0AC
:100C90006068B0F5803F0BD010B1B0F5A02F11D037
:100CA000286820F480302860286820F4802002E042
:100CB000286840F480302860606890B1FFF762FED9
:100CC00006460AE0286840F480202860F0E700BF6C
:100CD000FFF758FE801B642873D828688003F7D577
:100CE0000CE0FFF74FFE064605E000BFFFF74AFEA7
:100CF000801B6428F0D828688003F7D420789A4EA7
:100D000080074FF001094FF0000839D5686810F0EE
:100D10000C0F07D06868C0F38100022809D1686809
:100D2000C00306D42868800714D52069012808D19B
:100D300010E02069B0B1C6F80090FFF723FE074627
:100D400005E00AE1FFF71EFEC01B0228C4D8286890
:100D50008007F7D52868616920F0F80040EAC100F3
:100D600028600DE0C6F80080FFF70CFE074604E09F
:100D7000FFF708FEC01B022823D828688007F7D495
:100D8000207800072CD57948A169D9B1C0F8009026
:100D9000FFF7F8FD074604E0FFF7F4FDC01B02284B
:100DA0000FD8686A8007F7D571484FF4FA51006888
:100DB000B0FBF1F0009000BF0098411E0091FAD204
:100DC0000EE080E0C0F80080FFF7DCFD074604E09D
:100DD000FFF7D8FDC01B022875D8686A8007F7D4D2
:100DE0002078400760D5E8690027C00008D4E8698A
:100DF00040F08050E861E869012700F080500090E1
:100E00005C480168C90513D40168834641F48071C8
:100E10000160FFF7B7FD824606E000BFFFF7B2FDB5
:100E2000A0EB0A0064284ED8DBF80000C005F5D519
:100E3000E06801280AD008B1052813D0286A20F0FC
:100E400001002862286A20F0040002E0286A40F0CD
:100E500001002862E06841F2883B98B1FFF792FDFB
:100E600082460BE0286A40F004002862EEE700BFEB
:100E7000FFF788FDA0EB0A0159455AD8286A800778
:100E8000F6D50CE0FFF77EFD824605E0FFF77AFD20
:100E9000A0EB0A0159454CD8286A8007F6D41FB147
:100EA000E86920F08050E861E06988B36968C1F3BF
:100EB0008101022944D00228C6F8608004D0FFF7DF
:100EC00061FD044638E034E0FFF75CFD074604E0CE
:100ED000FFF758FDC01B02282BD828688001F7D4E3
:100EE000206AB0F5803F05D16868A16820F4003021
:100EF00008436860D4E908010843696821F4741163
:100F000008436860C6F86090FFF73CFD044606E0C1
:100F100025E000BFFFF736FD001B022809D828682E
:100F20008001F7D51BE000BFFFF72CFD001B022856
:100F300002D90320BDE8F88F28688001F4D40EE0C0
:100F40000128F7D06868226A00F48031914204D108
:100F5000616A00F47010884201D00120EAE70020A5
:100F6000E8E70000001002400000424280044242D4
:100F7000140000200070004070B515460E460400B5
:100F800007D0A069B0F5807F03D094F8410010B17C
:100F900007E0012070BD002084F84000204600F0EA
:100FA0001DF804F108012068FFF742FB3146A268F2
:100FB0002068FFF771FBD4E901022946236BFFF794
:100FC00019FBA168206850F8212042F0010240F886
:100FD0002120012084F84100002070BDFFF790BB64
:100FE0004FF0E0210428086903D020F004000861D4
:100FF000704740F00400FAE710B5401EB0F1807F62
:1010000001D3012010BD4FF0E02460610F21601773
:1010100003F091FF0020A06107202061002010BD97
:101020007047704770B590F83C20012A2CD00124FD
:1010300080F83C40022280F83D2003685A689D6891
:1010400022F070060A6832435A60104B02689A42D6
:101050000ED00F4B9A420BD0B2F1804F08D00D4BFF
:101060009A4205D00C4B9A4202D00C4B9A4204D1C2
:10107000496825F080031943916080F83D400021C4
:1010800080F83C10084670BD022070BD002C014065
:10109000003401400004004000080040000C004003
:1010A00010B5040003D094F83D0010B107E0012012
:1010B00010BD002084F83C00204600F01FF80220FC
:1010C00084F83D00211D206803F0C4F9012084F854
:1010D000460084F83E0084F83F0084F8400084F81D
:1010E000410084F8420084F8430084F8440084F806
:1010F000450084F83D00002010BD000008B50068E0
:101100000B49884212D10B48C16941F01001C161FD
:10111000C069002200F01000009011463620FFF751
:101120009DFCBDE808403620FFF78ABC08BD0000E2
:10113000001000400010024090F83D10012901D03D
:1011400001207047022180F83D100168CA6842F012
:101150000102CA6000680E4988420ED00D498842DB
:101160000BD0B0F1804F08D00B49884205D00B4915
:10117000884202D00A49884204D1816801F00701FF
:10118000062903D0016841F0010101600020704789
:10119000002C0140003401400004004000080040E1
:1011A000000C0040704770B50446006801694FF0BC
:1011B0000005C943890715D4C168C943890711D4FB
:1011C000E91E0161012020772068806980072046A0
:1011D00002D0FFF7E7FF04E000F098F8204600F0A7
:1011E00096F8257720680169C943490717D4C16873
:1011F000C943490713D46FF004010161022020772D
:101200002068806910F4407F204602D0FFF7CAFFB3
:1012100004E000F07BF8204600F079F8257720689C
:101220000169C943090716D4C168C943090712D423
:101230006FF008010161042020772068C0698007F1
:10124000204602D0FFF7AEFF04E000F05FF8204632
:1012500000F05DF8257720680169C943C90617D4F5
:10126000C168C943C90613D46FF010010161082099
:1012700020772068C06910F4407F204602D0FFF735
:1012800091FF04E000F042F8204600F040F8257796
:1012900020680169C943C90708D1C168C943C907A2
:1012A00004D1891E0161204600F032F820680169EE
:1012B000C943090609D4C168C943090605D46FF0BA
:1012C000800101612046FFF7ABFE20680169C94338
:1012D000490609D4C168C943490605D46FF04001E5
:1012E0000161204600F020F820680169C9438906A1
:1012F0000BD4C168C943890607D46FF0200101618E
:101300002046BDE87040FFF78CBE70BD7047704747
:10131000044900680968884202D101201EF00EBE0F
:1013200070470000880200207047FEE770B50D4C42
:101330000025C4F898510C48016821F07041016003
:10134000016841F040510160C4F89C51022004F54D
:10135000CC7406F0F3FE01202060022006F0EEFEC1
:10136000256070BD00802142000C01400E4810B580
:10137000816986B041F0080181618069012400F033
:1013800008000490C020CDE900040320CDE902400C
:1013900069460648FFF7F4F90548C0F89C41C0F8D3
:1013A000984106B010BD000000100240000C014042
:1013B0000080214270B50D4C0025C4F898510C48AE
:1013C000016821F070410160016841F04051016005
:1013D0000126C4F89C61022004F5CC7406F0AEFE30
:1013E0002660022006F0AAFE256070BD0080214222
:1013F000000C01402DE9F0478146174800240168A0
:1014000021F070410160016841F000410160134E1C
:10141000254627464FF00108C6F89871022006F0CD
:101420008DFEC6F898816006040ED6F81C0108B13E
:10143000641CE4B2012006F081FE6D1CEDB2082DA3
:10144000EAD3B9F1000F04D0FFF770FF2046BDE8E2
:10145000F087FFF7AFFFF9E7000C01400080214261
:101460002DE9F04106461448016821F07041016001
:10147000016841F040510160104C0027C4F8987198
:101480003D464FF00108F009C4F89C017006060EB5
:10149000022006F053FEC4F89881022006F04EFEAA
:1014A000C4F89871022006F049FE6D1CEDB2082DBB
:1014B000E9D3BDE8F0810000000C0140008021422A
:1014C00070B50D48016821F070410160016841F07C
:1014D00040510160094C0120C4F89C01C4F89801F6
:1014E000042004F5CC7406F029FE00256560042074
:1014F00006F024FE256070BD000C014000802142F2
:101500000E4810B5016821F070410160016841F09A
:10151000405101600A4C0020C4F89801C4F89C01B5
:10152000042004F5CC7406F009FE01202060606000
:10153000BDE81040042006F001BE0000000C014090
:101540000080214270B513480024016821F07041E9
:101550000160016841F0004101600F4D0126C5F8AE
:101560009C61304606F0EAFDC5F89861012006F05E
:10157000E5FD07E0641CE4B2FA2C03D9FFF7C0FFD5
:10158000012070BDD5F81C010028F3D1C5F89801E1
:1015900070BD0000000C01400080214270B514486D
:1015A00086B0816941F004018161816901F0040123
:1015B0000491816941F0400181618069012400F05A
:1015C0004000049003260025009402200396CDE9F4
:1015D000015069460748FFF7D3F81820CDE9000508
:1015E000CDE9024669460448FFF7CAF806B070BD67
:1015F00000100240000801400018014070B50A497F
:101600000646002408884D8821464543204602F0BE
:1016100063FC02F0D3FDB0B2044901E00880641C11
:10162000AC42FBD370BD0000D00200200008006C6B
:101630002DE9F0478246A2EB0A00401C0E4685B217
:10164000981B401C87B20024DFF83C90DDF8208016
:1016500015E0301981B2504602F03EFC02F0AEFDBA
:101660000020494607E000BF04FB050338F81320BB
:101670000A80401C80B2A842F6D3641CA4B2BC42CB
:10168000E7D3BDE8F08700000008006C2DE9F04FBB
:1016900033492C240A4688712A2592882B2645F244
:1016A000105B4FF4305E4FF448774FF0F00949F289
:1016B000413A4FF4A07845F2103C4FF4F07358B122
:1016C000A1F80080A1F80290524501D0624529D1CD
:1016D0000C814D818E8139E0A1F80090A1F8028043
:1016E000524501D0624508D10C814D818E81624501
:1016F00031D1A1F800804B802DE05A4508D1A1F8E6
:1017000008E04FF4285048814FF42C50888106E0BF
:10171000A2F5C85063381ED10C814E818D810B809B
:101720004F8018E05A4508D1A1F808E04FF428503E
:1017300048814FF42C50888106E0A2F5C8506338E8
:1017400004D10C814D818E810F804B80624502D186
:101750000B80A1F80280BDE8F04F002002F0E0BA53
:10176000D00200202DE9FE4F161ACDE900104FF0EF
:1017700000085D1A47464FF0FF30002E02DD4FF0A3
:10178000010102E003D14FF000018B4602E08346E5
:10179000C6F10006002D02DD4FF0010002E003D18A
:1017A0004FF00000824602E08246C5F10005AE42DD
:1017B00001DD344600E02C46601C4FF00009029029
:1017C00018E0009881B2019880B200F019F8B04496
:1017D0002F44A04504DD0198A8EB0408584401906B
:1017E000A74203DD00983F1B5044009009F101001F
:1017F0001FFA80F902998945E3DDBDE8FE8F0000FC
:1018000000B502F069FB02F0D9FC024802490088E9
:10181000088000BD180000200008006C2DE9FC4F76
:1018200080460025144603200F46A0EB440649E0FD
:10183000381B81B208EB050A01901FFA8AF0FFF706
:10184000DFFF781B81B208EB040900901FFA89F0D2
:10185000FFF7D6FF07EB050B1FFA8BF11FFA89F094
:10186000FFF7CEFF07EB04091FFA89F11FFA8AF090
:10187000FFF7C6FFA8EB050A1FFA89F11FFA8AF0E5
:10188000FFF7BEFFA8EB04091FFA8BF11FFA89F0DE
:10189000FFF7B6FF019881B21FFA8AF0FFF7B0FF99
:1018A000009881B21FFA89F0FFF7AAFF6D1C002E85
:1018B00003DA06EB8506B61D04E0281B06EB80065E
:1018C000641E0A36A542B3DDBDE8FC8F2DE9F04168
:1018D000354C90460D460246060AA18820462F0A3E
:1018E0004089A1F51343413B0CD0A1F5A643103B21
:1018F00008D0A1F5AA43103B10D0A1F5C853633B13
:1019000025D048E002F04EFC304602F03FFCD0B259
:1019100002F03CFCA08902F045FC36E002F042FCFB
:10192000304602F033FC6089401C80B202F03AFC81
:10193000D0B202F02BFCA08902F034FC384602F051
:1019400025FCA089401C80B202F02CFC20E0A1798B
:1019500019B92188891A491E8AB202F023FC160A95
:10196000304602F013FCD0B202F010FC304602F018
:101970000DFCD0B202F00AFCA08902F013FC38463C
:1019800002F004FCE8B202F001FC384602F0FEFB73
:10199000E8B202F0FBFB054920890880891CA1F808
:1019A0000080BDE8F0810000D0020020FE07006C3E
:1019B0002DE9F05F3220FEF791FED32002F0F2FB1A
:1019C00002F07EF9FE4CA08002F07AF9A08002F0CD
:1019D00077F94FF6FF7909EA0020A08002F070F94C
:1019E000A18849F241360843A08045F2103745F2FC
:1019F000105541F66318B04247D0D42002F0D2FB14
:101A000002F05EF9A08002F05BF9A08002F058F9C4
:101A100009EA00204A46A08002F052F9A188084352
:101A2000A080B84231D04FF45A4002F0BBFB02F024
:101A300047F9A0804FF45B4002F0B4FB02F040F99C
:101A400002EA0020A0804FF45C4002F0ABFB02F001
:101A500037F9A1880843A080B0F5004F7DD0A84297
:101A600013D0A12002F09EFB02F02AF9A08002F020
:101A700027F902EA0020A08002F022F9A188084399
:101A8000A0F5AE41A080613968D080B2B04266D185
:101A9000CF2002F087FB002002F078FBC12002F08B
:101AA00075FB302002F072FBED2002F07BFB64201E
:101AB00002F06CFB032002F069FB122002F066FBCF
:101AC000812002F063FBE82002F06CFB852002F02D
:101AD0005DFB102002F05AFB7A2002F057FBCB206E
:101AE00002F060FB392002F051FB2C2002F04EFB8B
:101AF000002002F04BFB342002F048FB022002F0F1
:101B000045FBF72002F04EFB202002F03FFBEA20CD
:101B100002F048FB002002F039FB002002F036FB07
:101B2000C02002F03FFB1B2002F030FBC12002F07E
:101B300039FB012002F02AFBC52002F033FB3020E4
:101B400002F024FB302002F021FBC72002F02AFB28
:101B5000B72002F01BFB362002E0B5E0B0E0B5E0B4
:101B600002F020FB482002F011FB3A2002F01AFBA1
:101B7000552002F00BFBB12002F014FB002002F014
:101B800005FB1A2002F002FBB62002F00BFB0A2034
:101B900002F0FCFAA22002F0F9FAF22002F002FBB5
:101BA000002002F0F3FA262002F0FCFA012002F0F5
:101BB000EDFAE02002F0F6FA0F2002F0E7FA2A2010
:101BC00002F0E4FA282002F0E1FA082002F0DEFA3E
:101BD0000E2002F0DBFA082002F0D8FA542002F0BE
:101BE000D5FAA92002F0D2FA432002F0CFFA0A2057
:101BF00002F0CCFA0F2002F0C9FA002002F0C6FA77
:101C0000002002F0C3FA002002F0C0FA002002F027
:101C1000BDFAE12002F0C6FA002002F0B7FA152062
:101C200002F0B4FA172002F0B1FA072002F0AEFA7F
:101C3000112002F0ABFA062002F0A8FA2B2002F0E5
:101C4000A5FA562002F0A2FA3C2002F09FFA0520E5
:101C500002F09CFA102002F099FA0F2002F096FA96
:101C60003F2002F093FA3F2002F090FA0F2002F09A
:101C70008DFA2B2002F096FA002002F087FA00205D
:101C800002F084FA012002F081FA3F2002F07EFA8D
:101C90002A2002F087FA002002F078FA002002F0F1
:101CA00075FA002002F072FAEF2002F06FFA1120AC
:101CB00002F078FA7820FEF711FD292001F008BF24
:101CC000A4F8048001F009BFA580FDE3B84276D1F5
:101CD000ED2002F067FA012002F058FAFE2002F02F
:101CE00055FAEE2002F05EFADE2002F04FFA2120D3
:101CF00002F04CFAF12002F055FA012002F046FA07
:101D0000DF2002F04FFA102002F040FAC42002F067
:101D100049FA8F2002F03AFAC62002F043FA002076
:101D200002F034FAE22002F031FAE22002F02EFA58
:101D3000E22002F02BFABF2002F034FAAA2002F0CF
:101D400025FAB02002F02EFA0D2002F01FFA002032
:101D500002F01CFA0D2002F019FA002002F016FA27
:101D6000112002F013FA002002F010FA192002F0FC
:101D70000DFA002002F00AFA212002F007FA0020F2
:101D800002F004FA2D2002F001FA002002F0FEF920
:101D90003D2002F0FBF9002002F0F8F95D2002F08E
:101DA000F5F9002002F0F2F95D2002F0EFF90020D1
:101DB00002F0ECF9B12002F0F5F9802002E0FDE339
:101DC000D002002002F0E2F9002002F0DFF98B20BF
:101DD00002F0DCF9002002F0D9F9962002F0D6F9E1
:101DE000002002F0D3F9B22002F0DCF9002002F06A
:101DF000CDF9002002F0CAF9022002F0C7F9002054
:101E000002F0C4F9032002F0C1F9002002F0BEF98B
:101E1000B32002F0C7F9002002F0B8F9002002F068
:101E2000B5F9002002F0B2F9002002F0AFF900206D
:101E300002F0ACF9002002F0A9F9002002F0A6F9A6
:101E4000002002F0A3F9002002F0A0F9002002F027
:101E50009DF9002002F09AF9002002F097F9002085
:101E600002F094F9002002F091F9002002F08EF9BE
:101E7000002002F08BF9002002F088F9002002F027
:101E800085F9002002F082F9002002F07FF900209D
:101E900002F07CF9002002F079F9002002F076F9D6
:101EA000002002F073F9B42002F07CF98B2002F0DC
:101EB0006DF9002002F06AF9962002F067F900201F
:101EC00002F064F9A12002F061F9002002F05EF94D
:101ED000B52002F067F9022002F058F9002002F064
:101EE00055F9032002F052F9002002F04FF90420C6
:101EF00002F04CF9002002F049F9B62002F052F944
:101F0000002002F043F9002002F040F9B72002F06F
:101F100049F9002002F03AF9002002F037F93F2099
:101F200002F034F9002002F031F95E2002F02EF9BF
:101F3000002002F02BF9642002F028F9002002F0C2
:101F400025F98C2002F022F9002002F01FF9AC20C4
:101F500002F01CF9002002F019F9DC2002F016F959
:101F6000002002F013F9702002F010F9002002F0B6
:101F70000DF9902002F00AF9002002F007F9EB2099
:101F800002F004F9002002F001F9DC2002F0FEF872
:101F9000002002F0FBF8B82002F004F9002002F063
:101FA000F5F8002002F0F2F8002002F0EFF800202F
:101FB00002F0ECF8002002F0E9F8002002F0E6F868
:101FC000002002F0E3F8002002F0E0F8BA2002F06E
:101FD000E9F8242002F0DAF8002002F0D7F8002017
:101FE00002F0D4F8002002F0D1F8C12002F0DAF8B3
:101FF000202002F0CBF8002002F0C8F8542002F0B4
:10200000C5F8002002F0C2F8FF2002F0BFF800205F
:1020100002F0BCF8C22002F0C5F80A2002F0B6F8BF
:10202000002002F0B3F8042002F0B0F8002002F023
:10203000ADF8C32002F0B6F83C2002F0A7F800206B
:1020400002F0A4F83A2002F0A1F8002002F09EF875
:10205000392002F09BF8002002F098F8372002F0B7
:1020600095F8002002F092F83C2002F08FF8002052
:1020700002F08CF8362002F089F8002002F086F891
:10208000322002F083F8002002F080F82F2002F0C6
:102090007DF8002002F07AF82C2002F077F800207A
:1020A00002F074F8292002F071F8002002F06EF8B6
:1020B000262002F06BF8002002F068F8242002F0DD
:1020C00065F8002002F062F8242002F05FF800209A
:1020D00002F05CF8232002F059F8002002F056F8D4
:1020E0003C2002F053F8002002F050F8362002F0B5
:1020F0004DF8002002F04AF8322002F047F80020A4
:1021000002F044F82F2002F041F8002002F03EF8DF
:102110002C2002F03BF8002002F038F8292002F0D1
:1021200035F8002002F032F8262002F02FF80020C7
:1021300002F02CF8242002F029F8002002F026F802
:10214000242002F023F8002002F020F8232002F0DF
:102150001DF8002002F01AF8C42002F023F86220D3
:1021600002F014F8002002F011F8052002F00EF839
:10217000002002F00BF8842002F008F8002002F0A2
:1021800005F8F02002F002F8002001F0FFFF18200F
:1021900001F0FCFF002001F0F9FFA42001F0F6FFA0
:1021A000002001F0F3FF182001F0F0FF002001F003
:1021B000EDFF502001F0EAFF002001F0E7FF0C20C6
:1021C00001F0E4FF002001F0E1FF172001F0DEFF45
:1021D000002001F0DBFF952001F0D8FF002001F086
:1021E000D5FFF32001F0D2FF002001F0CFFFE62061
:1021F00001F0CCFF002001F0C9FFC52001F0D2FFA3
:10220000322001F0C3FF002001F0C0FF442001F0A4
:10221000BDFF002001F0BAFF652001F0B7FF0020EC
:1022200001F0B4FF762001F0B1FF002001F0AEFF15
:10223000882001F0ABFF002001F0A8FFC62001F0CC
:10224000B1FF202001F0A2FF002001F09FFF172026
:1022500001F09CFF002001F099FF012001F096FFA2
:10226000002001F093FFC72001F09CFF002001F047
:102270008DFF002001F08AFF002001F087FF002081
:1022800001F084FFC82001F08DFF002001F07EFFE7
:10229000002001F07BFF002001F078FF002001F01A
:1022A00075FFC92001F07EFF002001F06FFF0020C4
:1022B00001F06CFF002001F069FF002001F066FFD3
:1022C000002001F063FF002001F060FF002001F01A
:1022D0005DFF002001F05AFF002001F057FF0020B1
:1022E00001F054FF002001F051FF002001F04EFFEB
:1022F000002001F04BFF002001F048FF002001F01A
:1023000045FF002001F042FFE02001F04BFF1620C6
:1023100001F03CFF002001F039FF1C2001F036FFE6
:10232000002001F033FF212001F030FF002001F0F8
:102330002DFF362001F02AFF002001F027FF462064
:1023400001F024FF002001F021FF522001F01EFFC8
:10235000002001F01BFF642001F018FF002001F0B5
:1023600015FF7A2001F012FF002001F00FFF8B20F3
:1023700001F00CFF002001F009FF992001F006FF99
:10238000002001F003FFA82001F000FF002001F071
:10239000FDFEB92001F0FAFE002001F0F7FEC42096
:1023A00001F0F4FE002001F0F1FECA2001F0EEFE83
:1023B000002001F0EBFED22001F0E8FE002001F049
:1023C000E5FED92001F0E2FE002001F0DFFEE02072
:1023D00001F0DCFE002001F0D9FEF32001F0D6FE72
:1023E000002001F0D3FEE12001F0DCFE162001F018
:1023F000CDFE002001F0CAFE1C2001F0C7FE002027
:1024000001F0C4FE222001F0C1FE002001F0BEFE5A
:10241000362001F0BBFE002001F0B8FE452001F09F
:10242000B5FE002001F0B2FE522001F0AFFE002008
:1024300001F0ACFE642001F0A9FE002001F0A6FE30
:102440007A2001F0A3FE002001F0A0FE8B2001F015
:102450009DFE002001F09AFE992001F097FE0020D9
:1024600001F094FEA82001F091FE002001F08EFE04
:10247000B92001F08BFE002001F088FEC42001F09D
:1024800085FE002001F082FECA2001F07FFE0020C0
:1024900001F07CFED22001F079FE002001F076FEF2
:1024A000D82001F073FE002001F070FEE02001F062
:1024B0006DFE002001F06AFEF32001F067FE0020AF
:1024C00001F064FEE22000E082E301F06BFE0520F3
:1024D00001F05CFE002001F059FE0B2001F056FED9
:1024E000002001F053FE1B2001F050FE002001F0FF
:1024F0004DFE342001F04AFE002001F047FE44204A
:1025000001F044FE002001F041FE4F2001F03EFEAC
:10251000002001F03BFE612001F038FE002001F0B8
:1025200035FE792001F032FE002001F02FFE8820D8
:1025300001F02CFE002001F029FE972001F026FE7C
:10254000002001F023FEA62001F020FE002001F073
:102550001DFEB72001F01AFE002001F017FEC22078
:1025600001F014FE002001F011FEC72001F00EFE64
:10257000002001F00BFED12001F008FE002001F048
:1025800005FED62001F002FE002001F0FFFDDD2057
:1025900001F0FCFD002001F0F9FDF32001F0F6FD53
:1025A000002001F0F3FDE32001F0FCFD052001F027
:1025B000EDFD002001F0EAFD0A2000E006E301F055
:1025C000E5FD002001F0E2FD1C2001F0DFFD002010
:1025D00001F0DCFD332001F0D9FD002001F0D6FD33
:1025E000442001F0D3FD002001F0D0FD502001F087
:1025F000CDFD002001F0CAFD622001F0C7FD0020E2
:1026000001F0C4FD782001F0C1FD002001F0BEFD05
:10261000882001F0BBFD002001F0B8FD972001F0FB
:10262000B5FD002001F0B2FDA62001F0AFFD0020B5
:1026300001F0ACFDB72001F0A9FD002001F0A6FDDE
:10264000C22001F0A3FD002001F0A0FDC72001F091
:102650009DFD002001F09AFDD12001F097FD0020A2
:1026600001F094FDD52001F091FD002001F08EFDD8
:10267000DD2001F08BFD002001F088FDF32001F04A
:1026800085FD002001F082FDE42001F08BFD01209A
:1026900001F07CFD002001F079FD012001F076FDC4
:1026A000002001F073FD022001F070FD002001F018
:1026B0006DFD2A2001F06AFD002001F067FD3C203D
:1026C00001F064FD002001F061FD4B2001F05EFD92
:1026D000002001F05BFD5D2001F058FD002001F0BD
:1026E00055FD742001F052FD002001F04FFD8420C3
:1026F00001F04CFD002001F049FD932001F046FD62
:10270000002001F043FDA22001F040FD002001F077
:102710003DFDB32001F03AFD002001F037FDBE2061
:1027200001F034FD002001F031FDC42001F02EFD48
:10273000002001F02BFDCD2001F028FD002001F04C
:1027400025FDD32001F022FD002001F01FFDDD203A
:1027500001F01CFD002001F019FDF32001F016FD31
:10276000002001F013FDE52001F01CFD002001F028
:102770000DFD002001F00AFD002001F007FD002002
:1027800001F004FD022001F001FD002001F0FEFC3B
:10279000292001F0FBFC002001F0F8FC3C2001F0B6
:1027A000F5FC002001F0F2FC4B2001F0EFFC0020D2
:1027B00001F0ECFC5D2001F0E9FC002001F0E6FCFA
:1027C000742001F0E3FC002001F0E0FC842001F023
:1027D000DDFC002001F0DAFC932001F0D7FC0020A2
:1027E00001F0D4FCA22001F0D1FC002001F0CEFCCD
:1027F000B32001F0CBFC002001F0C8FCBE2001F0AA
:10280000C5FC002001F0C2FCC42001F0BFFC002088
:1028100001F0BCFCCD2001F0B9FC002001F0B6FCB9
:10282000D32001F0B3FC002001F0B0FCDC2001F06B
:10283000ADFC002001F0AAFCF32001F0A7FC002071
:1028400001F0A4FCE62001F0ADFC112001F09EFC9B
:10285000002001F09BFC342001F098FC002001F0E6
:1028600095FC562001F092FC002001F08FFC7620B0
:1028700001F08CFC002001F089FC772001F086FC3F
:10288000002001F083FC662001F080FC002001F0B4
:102890007DFC882001F07AFC002001F077FC992073
:1028A00001F074FC002001F071FCBB2001F06EFC13
:1028B000002001F06BFC992001F068FC002001F081
:1028C00065FC662001F062FC002001F05FFC5520F1
:1028D00001F05CFC002001F059FC552001F056FC91
:1028E000002001F053FC452001F050FC002001F0D5
:1028F0004DFC432001F04AFC002001F047FC44203D
:1029000001F044FC002001F041FCE72001F04AFC0A
:10291000322001F03BFC002001F038FC552001F092
:1029200035FC002001F032FC762001F02FFC002065
:1029300001F02CFC662001F029FC002001F026FCAF
:10294000672001F023FC002001F020FC672001F04B
:102950001DFC002001F01AFC872001F017FC00206C
:1029600001F014FC992001F011FC002001F00EFC94
:10297000BB2001F00BFC002001F008FC992001F0C5
:1029800005FC002001F002FC772001F0FFFB002095
:1029900001F0FCFB442001F0F9FB002001F0F6FB04
:1029A000562001F0F3FB002001F0F0FB232001F0A2
:1029B000EDFB002001F0EAFB332001F0E7FB0020F3
:1029C00001F0E4FB452001F0E1FB002001F0DEFB1B
:1029D000E82001F0E7FB002001F0D8FB002001F027
:1029E000D5FB992001F0D2FB002001F0CFFB87201E
:1029F00001F0CCFB002001F0C9FB882001F0C6FBF0
:102A0000002001F0C3FB772001F0C0FB002001F0A3
:102A1000BDFB662001F0BAFB002001F0B7FB882067
:102A200001F0B4FB002001F0B1FBAA2001F0AEFBE5
:102A3000002001F0ABFBBB2001F0A8FB002001F05F
:102A4000A5FB992001F0A2FB002001F09FFB66206E
:102A500001F09CFB002001F099FB552001F096FB52
:102A6000002001F093FB552001F090FB002001F0C5
:102A70008DFB442001F08AFB002001F087FB4420FD
:102A800001F084FB002001F081FB552001F07EFB6A
:102A9000002001F07BFBE92001F084FBAA2001F07B
:102AA00075FB002001F072FB002001F06FFB00209D
:102AB00001F06CFB002001F075FBAA2001F066FB21
:102AC000CF2001F06FFB002001F060FB002001F03F
:102AD0005DFB002001F05AFB002001F057FB0020B5
:102AE00001F054FB002001F051FB002001F04EFBEF
:102AF000002001F04BFB002001F048FB002001F01A
:102B000045FB002001F042FB002001F03FFB0020CC
:102B100001F03CFB002001F039FB002001F036FB06
:102B2000002001F033FB002001F030FBF02001F029
:102B300039FB002001F02AFB502001F027FB002088
:102B400001F024FB002001F021FB002001F01EFB1E
:102B5000F32001F027FB002001F018FBF92001F021
:102B600021FB062001F012FB102001F00FFB2920B1
:102B700001F00CFB002001F009FB3A2001F012FBF0
:102B8000552001F003FB112001F00CFB6420FDF740
:102B9000A5FD292001F006FB352001F003FB0020F4
:102BA00001F0F4FA512001F0FDFAFF2001F0EEFAF5
:102BB000532001F0F7FA2C2001F0E8FA552001F03B
:102BC000F1FA822001F0E2FA2C20FCE3A8427CD149
:102BD0004FF470435521184601F0FAFA4FF2010AFA
:102BE000AA21504601F0F4FA4FF2020B5221584646
:102BF00001F0EEFA08214FF2030001F0E9FA012199
:102C00004FF2040001F0E4FA0D214FF4304001F0DE
:102C1000DFFA0D214BF2010001F0DAFA0D214BF23F
:102C2000020001F0D5FA34214FF4364001F0D0FA19
:102C300034214BF2016001F0CBFA34214BF20260F7
:102C400001F0C6FA0D214FF4314001F0C1FA0D2117
:102C50004BF2011001F0BCFA0D214BF2021001F011
:102C6000B7FA34214FF4374001F0B2FA34214BF275
:102C7000017001F0ADFA34214BF2027001F0A8FAB4
:102C800000214FF4324001F0A3FA00214BF2012061
:102C900001F09EFA00214BF2022001F099FA242162
:102CA0004FF4384001F094FA24214BF6010001F072
:102CB0008FFA24214BF6020001F08AFA01214FF429
:102CC0003F4001F085FA0F2100E0FDE34FF433406F
:102CD00001F07EFA0F214BF2013001F079FA0F2159
:102CE0004BF2023001F074FA34214FF4394001F014
:102CF0006FFA34214BF6011001F06AFA34214BF6D9
:102D0000021001F065FA08214FF4354001F060FA35
:102D100008214BF2015001F05BFA08214BF20250FE
:102D200001F056FA03214FF4424001F051FA2421F8
:102D30004FF43A4001F04CFA24214BF6012001F007
:102D400047FA24214BF6022001F042FA00214FF409
:102D50003C4001F03DFA78214BF6014001F038FA91
:102D600000214BF6024001F033FA00214FF43D40C0
:102D700001F02EFA78214BF6015001F029FA0021DA
:102D80004BF6025001F024FA00214FF43E4001F0CE
:102D90001FFA64214BF6016001F01AFA00214FF48A
:102DA000514001F015FA33214DF2011001F010FAF3
:102DB00000214DF2021001F00BFA34214DF2031004
:102DC00001F006FA00214DF2041001F001FA3A2157
:102DD0004DF2051001F0FCF900214DF2061001F052
:102DE000F7F94A214DF2071001F0F2F900214DF2F6
:102DF000081001F0EDF95C214DF2091001F0E8F93D
:102E000000214DF20A1001F0E3F981214DF20B107F
:102E100001F0DEF900214DF20C1001F0D9F9A621E4
:102E20004DF20D1001F0D4F900214DF20E1001F019
:102E3000CFF9E5214DF20F1001F0CAF901214DF251
:102E4000101001F0C5F913214DF2111001F0C0F975
:102E500001214DF2121001F0BBF954214DF2131073
:102E600001F0B6F901214DF2141001F0B1F98221FF
:102E70004DF2151001F0ACF901214DF2161001F0E0
:102E8000A7F9CA214DF2171001F0A2F902214DF263
:102E9000181001F09DF900214DF2191001F098F978
:102EA00002214DF21A1001F093F901214DF21B108D
:102EB00001F08EF902214DF21C1001F089F9342144
:102EC0004DF21D1001F084F902214DF21E1001F0A7
:102ED0007FF967214DF21F1001F07AF902214DF2BE
:102EE000201001F075F984214DF2211001F070F9E4
:102EF00002214DF2221001F06BF9A4214DF22310B2
:102F000001F066F902214DF2241001F061F9B721B8
:102F10004DF2251001F05CF902214DF2261001F06E
:102F200057F9CF214DF2271001F052F902214DF24D
:102F3000281001F04DF9DE214DF2291001F048F979
:102F400002214DF22A1001F043F9F2214DF22B102B
:102F500001F03EF902214DF22C1001F039F9FE2169
:102F60004DF22D1001F034F903214DF22E1001F035
:102F70002FF910214DF22F1001F02AF903214DF203
:102F8000301001F025F933214DF2311001F020F914
:102F900003214DF2321001F01BF96D214DF2331077
:102FA00001F016F900214FF4524001F011F93321DC
:102FB0004DF2012001F00CF900214DF2022001F048
:102FC00007F934214DF2032001F002F900214DF2FE
:102FD000042001F0FDF83A214DF2052001F0F8F847
:102FE00000214DF2062001F0F3F84A214DF20720AE
:102FF00001F0EEF800214DF2082001F0E9F85C2123
:103000004DF2092001F0E4F800214DF20A2001F010
:10301000DFF881214DF20B2001F0DAF800214DF2AA
:103020000C2001F0D5F8A6214DF20D2001F0D0F8CA
:1030300000214DF20E2001F0CBF8E5214DF20F20DA
:1030400001F0C6F801214DF2102001F0C1F8132162
:103050004DF2112001F0BCF801214DF2122001F0D7
:10306000B7F854214DF2132001F0B2F801214DF2CE
:10307000142001F0ADF882214DF2152001F0A8F8DE
:1030800001214DF2162001F0A3F8CA214DF21720BC
:1030900001F09EF802214DF2182001F099F800216C
:1030A0004DF2192001F094F802214DF21A2001F09E
:1030B0008FF801214DF21B2001F08AF802214DF218
:1030C0001C2001F085F834214DF21D2001F080F81C
:1030D00002214DF21E2001F07BF867214DF21F20E6
:1030E00001F076F802214DF2202001F071F88421E0
:1030F0004DF2212001F06CF802214DF2222001F066
:1031000067F8A4214DF2232001F062F802214DF26C
:10311000242001F05DF8B7214DF2252001F058F888
:1031200002214DF2262001F053F8CF214DF2272045
:1031300001F04EF802214DF2282001F049F8DE217D
:103140004DF2292001F044F802214DF22A2001F02D
:103150003FF8F2214DF22B2001F03AF802214DF216
:103160002C2001F035F8FE214DF22D2001F030F831
:1031700003214DF22E2001F02BF810214DF22F20CB
:1031800001F026F803214DF2302001F021F833211F
:103190004DF2312001F01CF803214DF2322001F0F4
:1031A00017F86D214DF2332001F012F800214FF491
:1031B000534001F00DF833214DF2013001F008F8D1
:1031C00000214DF2023001F003F834214DF20330BA
:1031D00000F0FEFF00214DF2043000F0F9FF3A212B
:1031E0004DF2053000F0F4FF00214DF2063000F002
:1031F000EFFF4A214DF2073000F0EAFF00214DF2C7
:10320000083000F0E5FF5C214DF2093000F0E0FFEE
:1032100000214DF20A3000F0DBFF81214DF20B302E
:1032200000F0D6FF00214DF20C3000F0D1FFA621B6
:103230004DF20D3000F0CCFF00214DF20E3000F0C9
:10324000C7FFE5214DF20F3000F0C2FF01214DF222
:10325000103000F0BDFF13214DF2113000F0B8FF27
:1032600001214DF2123000F0B3FF54214DF2133022
:1032700000F0AEFF01214DF2143000F0A9FF8221D1
:103280004DF2153000F0A4FF01214DF2163000F090
:103290009FFFCA214DF2173000F09AFF02214DF234
:1032A000183000F095FF00214DF2193000F090FF2A
:1032B00002214DF21A3000F08BFF01214DF21B303C
:1032C00000F086FF02214DF21C3000F081FF342116
:1032D0004DF21D3000F07CFF02214DF21E3000F057
:1032E00077FF67214DF21F3000F072FF02214DF28F
:1032F000203000F06DFF84214DF2213000F068FF96
:1033000002214DF2223000F063FFA4214DF2233060
:1033100000F05EFF02214DF2243000F059FFB7218A
:103320004DF2253000F054FF02214DF2263000F01E
:103330004FFFCF214DF2273000F04AFF02214DF21E
:10334000283000F045FFDE214DF2293000F040FF2B
:1033500002214DF22A3000F03BFFF2214DF22B30DA
:1033600000F036FF02214DF22C3000F031FFFE213B
:103370004DF22D3000F02CFF03214DF22E3000F0E5
:1033800027FF10214DF22F3000F022FF03214DF2D4
:10339000303000F01DFF33214DF2313000F018FFC6
:1033A00003214DF2323000F013FF6D214DF2333026
:1033B00000F00EFF00214FF4544000F009FF3321CC
:1033C0004DF2014000E083E300F002FF00214DF2E6
:1033D000024000F0FDFE34214DF2034000F0F8FE03
:1033E00000214DF2044000F0F3FE3A214DF2054079
:1033F00000F0EEFE00214DF2064000F0E9FE4A2109
:103400004DF2074000F0E4FE00214DF2084000F0CC
:10341000DFFE5C214DF2094000F0DAFE00214DF2A2
:103420000A4000F0D5FE81214DF20B4000F0D0FEA5
:1034300000214DF20C4000F0CBFEA6214DF20D40D4
:1034400000F0C6FE00214DF20E4000F0C1FEE52165
:103450004DF20F4000F0BCFE01214DF2104000F093
:10346000B7FE13214DF2114000F0B2FE01214DF2E2
:10347000124000F0ADFE54214DF2134000F0A8FEC2
:1034800001214DF2144000F0A3FE82214DF21540BF
:1034900000F09EFE01214DF2164000F099FECA2177
:1034A0004DF2174000F094FE02214DF2184000F05A
:1034B0008FFE00214DF2194000F08AFE02214DF2EC
:1034C0001A4000F085FE00E005E301214DF21B40AB
:1034D00000F07EFE02214DF21C4000F079FE342106
:1034E0004DF21D4000F074FE02214DF21E4000F02E
:1034F0006FFE67214DF21F4000F06AFE02214DF27F
:10350000204000F065FE84214DF2214000F060FE75
:1035100002214DF2224000F05BFEA4214DF2234037
:1035200000F056FE02214DF2244000F051FEB7217A
:103530004DF2254000F04CFE02214DF2264000F0F5
:1035400047FECF214DF2274000F042FE02214DF20E
:10355000284000F03DFEDE214DF2294000F038FE0B
:1035600002214DF22A4000F033FEF2214DF22B40B1
:1035700000F02EFE02214DF22C4000F029FEFE212B
:103580004DF22D4000F024FE03214DF22E4000F0BC
:103590001FFE10214DF22F4000F01AFE03214DF2C4
:1035A000304000F015FE33214DF2314000F010FEA6
:1035B00003214DF2324000F00BFE6D214DF23340FD
:1035C00000F006FE00214FF4554000F001FE3321CB
:1035D0004DF2015000F0FCFD00214DF2025000F0D0
:1035E000F7FD34214DF2035000F0F2FD00214DF2C1
:1035F000045000F0EDFD3A214DF2055000F0E8FDD9
:1036000000214DF2065000F0E3FD4A214DF2075033
:1036100000F0DEFD00214DF2085000F0D9FD5C21E4
:103620004DF2095000F0D4FD00214DF20A5000F097
:10363000CFFD81214DF20B5000F0CAFD00214DF26B
:103640000C5000F0C5FDA6214DF20D5000F0C0FD5C
:1036500000214DF20E5000F0BBFDE5214DF20F5060
:1036600000F0B6FD01214DF2105000F0B1FD132124
:103670004DF2115000F0ACFD01214DF2125000F05E
:10368000A7FD54214DF2135000F0A2FD01214DF28F
:10369000145000F09DFD82214DF2155000F098FD70
:1036A00001214DF2165000F093FDCA214DF2175042
:1036B00000F08EFD02214DF2185000F089FD00212E
:1036C0004DF2195000F084FD02214DF21A5000F025
:1036D0007FFD01214DF21B5000F07AFD02214DF2D9
:1036E0001C5000F075FD34214DF21D5000F070FDAE
:1036F00002214DF21E5000F06BFD67214DF21F506C
:1037000000F066FD02214DF2205000F061FD8421A1
:103710004DF2215000F05CFD02214DF2225000F0EC
:1037200057FDA4214DF2235000F052FD02214DF22D
:10373000245000F04DFDB7214DF2255000F048FD1A
:1037400002214DF2265000F043FDCF214DF22750CB
:1037500000F03EFD02214DF2285000F039FDDE213F
:103760004DF2295000F034FD02214DF22A5000F0B4
:103770002FFDF2214DF22B5000F02AFD02214DF2D7
:103780002C5000F025FDFE214DF22D5000F020FDC3
:1037900003214DF22E5000F01BFD10214DF22F5051
:1037A00000F016FD03214DF2305000F011FD3321E1
:1037B0004DF2315000F00CFD03214DF2325000F07B
:1037C00007FD6D214DF2335000F002FD00214FF452
:1037D000564000F0FDFC33214DF2016000F0F8FC92
:1037E00000214DF2026000F0F3FC34214DF2036041
:1037F00000F0EEFC00214DF2046000F0E9FC3A21FB
:103800004DF2056000F0E4FC00214DF2066000F08E
:10381000DFFC4A214DF2076000F0DAFC00214DF296
:10382000086000F0D5FC5C214DF2096000F0D0FC8E
:1038300000214DF20A6000F0CBFC81214DF20B60BB
:1038400000F0C6FC00214DF20C6000F0C1FCA62186
:103850004DF20D6000F0BCFC00214DF20E6000F056
:10386000B7FCE5214DF20F6000F0B2FC01214DF2F2
:10387000106000F0ADFC13214DF2116000F0A8FCC7
:1038800001214DF2126000F0A3FC54214DF21360AF
:1038900000F09EFC01214DF2146000F099FC8221A1
:1038A0004DF2156000F094FC01214DF2166000F01D
:1038B0008FFCCA214DF2176000F08AFC02214DF204
:1038C000186000F085FC00214DF2196000F080FCCA
:1038D00002214DF21A6000F07BFC01214DF21B60C9
:1038E00000F076FC02214DF21C6000F071FC3421E6
:1038F0004DF21D6000F06CFC02214DF21E6000F0E4
:1039000067FC67214DF21F6000F062FC02214DF25E
:10391000206000F05DFC84214DF2216000F058FC35
:1039200002214DF2226000F053FCA4214DF22360ED
:1039300000F04EFC02214DF2246000F049FCB7215A
:103940004DF2256000F044FC02214DF2266000F0AB
:103950003FFCCF214DF2276000F03AFC02214DF2EE
:10396000286000F035FCDE214DF2296000F030FCCB
:1039700002214DF22A6000F02BFCF2214DF22B6067
:1039800000F026FC02214DF22C6000F021FCFE210B
:103990004DF22D6000F01CFC03214DF22E6000F072
:1039A00017FC10214DF22F6000F012FC03214DF2A4
:1039B000306000F00DFC33214DF2316000F008FC66
:1039C00003214DF2326000F003FC6D214DF23360B3
:1039D00000F0FEFB5521184600F0FAFBAA215046E4
:1039E00000F0F6FB5221584600F0F2FB08214FF29E
:1039F000030000F0EDFB00214FF2040000F0E8FBB3
:103A0000CC214FF4314000F0E3FB00214BF20110D8
:103A100000F0DEFB05214FF4364000F0D9FB7021A9
:103A20004FF4374000F0D4FB70214BF2017000F0EE
:103A3000CFFB01214FF4384000F0CAFB03214BF6C5
:103A4000010000F0C5FB03214BF6020000F0C0FBB3
:103A500003214BF6030000F0BBFB02214FF43C4076
:103A600000F0B6FB00214BF6014000F0B1FB002155
:103A70004BF6024000F0ACFBD0214FF4494000F07F
:103A8000A7FB02214CF6011000F0A2FB50214CF6DE
:103A9000021000F09DFB50214CF6031000F098FB43
:103AA00050214CF6041000F093FB00214FF45450C9
:103AB00000F08EFB55214FF4685000F089FB4FF465
:103AC000885000F06FFB782004F038FB4FF424504E
:103AD00000F068FBB9E04045FCD1E22000F062FB59
:103AE0001D2000F053FB022000F050FB042000F0EA
:103AF0004DFB642004F022FBE02000F053FB01208A
:103B000000F044FB0A20FCF7E9FDE02000F04AFB4E
:103B1000032000F03BFB0C20FCF7E0FD012000F04F
:103B200041FB0A20FCF7DAFDE62000F03BFB2F20EA
:103B300000F02CFBFF2000F029FBFF2000F026FB0B
:103B4000B02000F02FFB202000F020FB002000F030
:103B50001DFB032000F01AFB40F21F3000F016FBA3
:103B6000012000F013FB40F2DF1000F00FFB0020FB
:103B700000F00CFBB42000F015FB042000F006FB65
:103B800040F21F4000F002FB002000F0FFFA2E2060
:103B900000F0FCFA002000F0F9FA002000F0F6FA3C
:103BA000002000F0F3FA002000F0F0FAB62000F058
:103BB000F9FA022000F0EAFA4FF4037000F0E6FA96
:103BC000002000F0E3FA172000F0E0FA152000F0E2
:103BD000DDFA002000F0DAFA002000F0D7FAF02039
:103BE00000F0E0FA032000F0D1FA292000F0DAFA20
:103BF000D02000F0D7FA002000F0C8FABE2000F074
:103C0000D1FA052000F0C2FAFE2000F0BFFA012030
:103C100000F0BCFA002000F0B9FA002000F0B6FA7B
:103C2000002000F0B3FAB82000F0BCFA032000F046
:103C3000ADFA012000F0AAFABA2000F0B3FA012090
:103C400000F0A4FA642000F045F8A088B04205D046
:103C5000B84203D0A84201D0404519D14FF02040CE
:103C6000D0F81C1121F00F01C0F81C11D0F81C1164
:103C700021F47061C0F81C11D0F81C1141F0010151
:103C8000C0F81C11D0F81C1141F48071C0F81C114F
:103C90000020FDF7FBFC012211460448FCF76CFEF6
:103CA0004846BDE8F05FFDF7A9BC0000000C0140EC
:103CB0000246012000E05043491EC9B2FBD27047C2
:103CC000034808B50088ADF80000BDF8000008BD45
:103CD0000008006C10B50246BE2000F063FA052013
:103CE00000F054FA104620F0D4FD4FF066320B4B32
:103CF00020F01EFE20F0A0FD80B200F047FA012067
:103D000000F044FAFF2000F041FA002000F03EFAF3
:103D1000BDE81040002000F039BA0000666604409B
:103D2000F0B56C4C00232146A279898841F66316D0
:103D3000012A01D01AB11BE0B14202D118E0B14210
:103D400016D1082814D2DFE800F00406080A0C0E89
:103D5000101206200CE007200AE0042008E00520ED
:103D600006E0012004E0002002E0032000E0022041
:103D7000A1F5134745F2103245F21055413F05D0E9
:103D8000914203D0A94201D0B14277D1082812D282
:103D9000DFE800F0110406080A0C0E1080230AE088
:103DA000402308E0C02306E0202304E0602302E073
:103DB000A02300E0E023A94202D14FF4585000E0D4
:103DC0003620914205D0A94203D0B14201D043F040
:103DD0000803194600F0FCF9A188B1420AD0980600
:103DE0002088628802D5904202D303E0904201D934
:103DF000228060806089A94241D100F0D3F900207F
:103E000000F0C4F96089401C80B200F0CBF90020BA
:103E100000F0BCF96089801C80B200F0C3F92088F2
:103E2000401EC0F30F2000F0B1F96089C01C80B2C1
:103E300000F0B8F92078401EC0B200F0A7F9A089C0
:103E400000F0B0F9002000F0A1F9A089401C80B278
:103E500000F0A8F9002000F099F9A089801C80B238
:103E600000F0A0F96088401EC0F30F2000F08EF92A
:103E7000A089C01C80B200F095F922E028E000F093
:103E800091F9002000F082F9002000F07FF92088ED
:103E9000401EC0F30F2000F079F92078401EC0B218
:103EA00000F074F9A08900F07DF9002000F06EF9AF
:103EB000002000F06BF96088401EC0F30F2000F076
:103EC00065F9A078BDE8F040401EC0B200F05EB9D0
:103ED000F0BD0000D0020020F0B53F4A0D46044678
:103EE000060A918810462F0A4089A1F51343413BE9
:103EF00028D0A1F5A643103B24D0A1F5C853633BBD
:103F00002FD0A1F5AA43103B64D100F04BF9304605
:103F100000F03CF95089401C80B200F043F9E0B257
:103F200000F034F9908900F03DF9384600F02EF9A0
:103F30009089401C80B200F035F9E8B2BDE8F0404D
:103F400000F024B900F02EF9304600F01FF9E0B27D
:103F500000F01CF9908900F025F9384600F016F9B8
:103F6000EBE7917929B300F01DF9304600F00EF926
:103F7000E0B200F00BF91088401EC0F30F2000F0F3
:103F800005F91078401EC0B200F000F9908900F0E9
:103F900009F9384600F0FAF8E8B200F0F7F850886E
:103FA000401EC0F30F2000F0F1F89078401EC0B220
:103FB000C4E71188091B491E8CB200F0F3F80020F9
:103FC00000F0E4F8002000F0E1F8200A00F0DEF84C
:103FD000E0B2D9E7F0BD0000D00200202DE9FF4F8C
:103FE0001D460C468A46580700D0012000EBD5003C
:103FF00069084843203A00F0FF09D0B20026DFF8F4
:10400000A8B002904BE00C2D11D0102D14D0182D1B
:1040100017D0202D45D12549029801EBC0104FF053
:104020000008875D380613D52148026814E002981D
:10403000204900EB400008E01F49029801EB001006
:10404000EDE702981D4900EBC00001EB8000E6E7B8
:104050000D9828B91648426821460098FDF736FCAD
:104060007806070E641CBBF80200A4B2A04218D95F
:10407000A4EB0A00A84209D100985446401C80B223
:104080000090BBF8001081420BD906E008F1010056
:1040900000F0FF08B8F1080FC4D3761CF6B24E4505
:1040A000B1D3BDE8FF8F0000D0020020126C0208DF
:1040B0001800002052540208C6580208B65E0208D2
:1040C0002DE9FF4F81B00026DDF838A01D4693464C
:1040D00081463446B0464FEA5A0727E0281B401E67
:1040E000C1B20A20FFF7E4FDBBFBF0F00A21B0FBF0
:1040F000F1F201FB120026B9691E8C4201DA48B1C7
:1041000001263030C2B207FB049080B25346CDF88E
:10411000008006E007FB049080B253462022CDF8D1
:1041200000800299FFF75AFF641CE4B2AC42D5D379
:1041300005B0BDE8F08F2DE9F84F044600F0FF0907
:1041400010190D46DDE90AB61FFA80F8581987B232
:104150004FF0000A12E0444503D305EB0B004C4638
:1041600085B2BD420FD25B4629462046CDF800A05D
:10417000FFF734FF04EB5B0084B2761C3278A2F1C7
:1041800020005E28E7D9BDE8F88F000001B5BDF832
:104190000000ADF80000BDF800000149088008BD2E
:1041A0000008006C01B5BDF80000ADF80000BDF8D6
:1041B00000000149088008BDFE07006C0248034961
:1041C0000089088070470000D0020020FE07006CC4
:1041D000024A1080901C018070470000FE07006CAE
:1041E00030B58FB01C216846FCF7EAF81C2107A8FF
:1041F000FCF7E6F81C484FF02041062201601B49FD
:10420000C0E9011200211023C160C0E904138161DB
:10421000C1611C020162C0E909149C02C0E90B14CF
:10422000416381630F201A240092CDE9010403AD9C
:10423000112485E81A000325CDE906150AAD85E8A5
:104240001A000D91CDE9080207AA69460648FCF755
:1042500093FE08B1FCF7CCF90548C16941F48061CF
:10426000C1610FB030BD000040020020040100A079
:10427000000001402DE9F04186B00025404800953E
:10428000019502950395816941F040018161816941
:1042900001F040010491816941F01001816181695F
:1042A00001F010010491816941F08001816181690F
:1042B00001F080010491816941F00401816181690B
:1042C00001F004010491816941F008018161816973
:1042D00001F008010491816941F480718161816973
:1042E00001F480710491816941F02001816180694C
:1042F000244F00F020004FF4206604900022314645
:104300003846FCF739FBDFF880800022C3214046A5
:10431000FCF732FB1820CDE9000501246946029420
:104320001A48FCF72DFACDE900640326CDE90256C0
:1043300069463846FCF724FAA002CDE90005694633
:1043400002943846FCF71CFA02200094CDE9015093
:1043500069460F48FCF714FAC320CDE90004CDE903
:10436000024669464046FCF70BFA0420CDE90005F9
:10437000694602944046FCF703FA06B0BDE8F081B6
:1043800000100240001C0140000C014000180140D8
:10439000000801401CB500240F4800940D49019409
:1043A00001604721C0E9011440F2E731C16080217A
:1043B0008161FCF775FE08B1FCF71AF900946946B3
:1043C00005480194FCF72EFE002801D0FCF710F9F7
:1043D0001CBD00000010004088020020FEE7FEE740
:1043E00070477047FCF7D4BA30B58FB028216846C3
:1043F000FBF7E6FF14210AA8FBF7E2FF01210804FE
:10440000CDE900100024029402250491CDE9075063
:104410004FF4E01009906846FCF71EFC08B172B634
:10442000FEE70F20CDE90A054FF48060CDE90C408E
:1044300002210AA80E94FCF743FB002801D072B6B3
:10444000FEE70FB030BD70470148FCF7ACBE00007E
:1044500088020020F0B502681C4B1D4D1D4E1E4FFA
:104460001E4C4FF0804C984209D0A04207D06045C6
:1044700005D0A84203D0B04201D0B84204D122F006
:10448000700E4A6842EA0E02984209D0A04207D054
:10449000604505D0A84203D0B04201D0B84203D154
:1044A00022F44075CA682A434D6922F080022A43EB
:1044B00002608A68C2620A688262984201D0A042A1
:1044C00001D10969016301214161F0BD002C014066
:1044D0000004004000080040000C0040003401408F
:1044E0002DE9FF4F83B00E46DDE910A94E4907467E
:1044F0004FF47840DDF8508008604CA01024CDE9DE
:1045000000404B4D9346A0216B882A882820FFF756
:1045100012FE48A0CDE900406B882A88A0217820AF
:10452000FFF709FE44A0CDE900406B882A88B4213A
:104530002820FFF700FE41A0CDE900406B882A88C3
:10454000B4217820FFF7F7FD3DA0CDE900406B884E
:104550002A88C8212820FFF7EEFD3AA0CDE90040C7
:104560006B882A88C8217820FFF7E5FD36A0CDE9C1
:1045700000406B882A88DC212820FFF7DCFD33A06F
:10458000CDE900406B882A88DC217820FFF7D3FD35
:104590002FA0CDE900406B882A88F0212820FFF762
:1045A000CAFD04233A46A02140200094FFF788FD6D
:1045B00004233246A02190200094FFF781FD0423BC
:1045C0005A46B42140200094FFF77AFD042300945A
:1045D000B4219020069AFFF773FD04235246C821A8
:1045E00040200094FFF76CFD04234A46C821902028
:1045F0000094FFF765FD04230094DC214020129A0B
:10460000FFF75EFD04230094DC219020139AFFF74E
:1046100057FD03234246F02160200094FFF750FD30
:1046200007B0BDE8F08F00001800002078313A0094
:10463000D002002079313A0078323A0079323A00DB
:1046400078333A0079333A0078343A0079343A00D2
:104650006661632069733A002DE9F04F0024DFF8AA
:104660000CB48FB01F204FF6FF7825465E464746B4
:10467000CBF80000FE48C0F800803846FCF7BEFFCB
:104680004FF478493846C6F80090FCF7B7FFF94870
:104690000027376001684FF0100ACDE900A12821FA
:1046A0006423A0220846FFF746FD14214A46084627
:1046B00000F07CFAF04E4FF0010986F82070776226
:1046C00071680120884796F82000B9EB901F45D10A
:1046D00020F0400086F8200009A8B18920F82410B5
:1046E00000EB8400641C0025F18AE4B24180012CB7
:1046F00006D0022C11D0032C1ED0042C2ED13AE06F
:1047000014214246084600F051FADC484FF4784242
:104710000088143880B214211EE0D84F424614217C
:104720003888143880B200F041FA78884FF4784223
:10473000143881B214200FE0D04F424678881438E4
:1047400081B2142000F032FA78884FF4784214389D
:1047500081B23888143880B200F028FA0A2003F0B9
:10476000DFFC6D1CADB2B5F57A7FA9D900F056FA21
:104770000FB0BDE8F08FBDF82400BDF82810411A35
:1047800000D54942BDF82600BDF82A20801A00D580
:10479000404249434043084420F07BF81DF084FE2A
:1047A00020F04AF884B2BDF82C00BDF83010401A51
:1047B00000D54042BDF82E10BDF83220891A00D530
:1047C0004942404301FB010020F063F81DF06CFEFC
:1047D00020F032F880B2039020F06EFC07462046AD
:1047E00020F06AFC394620F051FB20F0BBFA074666
:1047F0004FF06632A24B019120F05EF87ED3A14AC1
:10480000A14B3846019920F091F9F7D3002C75D0CF
:1048100003980028FBD0BDF82400BDF82C10401AE6
:1048200000D54042BDF82610BDF82E20891A00D5CB
:104830004942404301FB010020F02BF81DF034FEFB
:104840001FF0FAFF87B2BDF82800BDF83010401AFB
:1048500000D54042BDF82A10BDF83220891A00D593
:104860004942404301FB010020F013F81DF01CFEFB
:104870001FF0E2FF80B220F01FFC0446384620F013
:104880001BFC214620F002FB20F06CFA07464FF09B
:1048900066327B4B019120F00FF852D3794A7A4B64
:1048A0003846019920F042F94BD3BDF82800BDF8F5
:1048B0002C10411A00D54942BDF82A00BDF82E201F
:1048C000801A00D540424943404308441FF0E1FFAD
:1048D0001DF0EAFD1FF0B0FF87B2BDF82400BDF85F
:1048E0003010411A00D54942BDF82600BDF83220EB
:1048F000801A00D540424943404300E046E0084466
:104900001FF0C7FF1DF0D0FD1FF096FF80B220F012
:10491000D3FB0446384620F0CFFB214620F0B6FA00
:1049200020F020FA07464FF06632554B01911FF0F8
:10493000C3FF06D3534A544B3846019920F0F6F88A
:1049400056D24E4800244246418800881439143813
:1049500089B280B200F02AF914214FF47842084657
:1049600000F024F90022494B384601991FF0E0FF7E
:104970001FF062FF80B2BDF83210BDF83030BDF8D4
:104980002E20CDE90310CDE9012323E03B4800248C
:104990004246418800881439143889B280B200F048
:1049A00005F914214FF47842084600F0FFF8002280
:1049B000364B384601991FF0BBFF1FF03DFF82B216
:1049C000BDF83030BDF83210BDF82E00CDE901033E
:1049D000CDE90312BDF82C000090BDF82A30BDF8D7
:1049E0002820BDF82610BDF82400FFF779FD67E602
:1049F000BDF82800BDF824700290C01B20F044FBD5
:104A000004461E48008804900090283820F03CFBA3
:104A1000214620F03BFA706203900298384420F05F
:104A20004BFB039920F05CFB0446009820F044FB0C
:104A3000214620F021FC4FF0FF3120F0C4FC20F093
:104A4000E7FAB085BDF82E00BDF826100746401ADB
:104A5000029120F019FB0446084840880190069016
:104A6000283820F011FB214612E000001800002039
:104A70001C000020949B020824000020D00200208B
:104A80006666EE3FCDCCCCCCCCCCF03F000059409C
:104A900020F0FCF9B06202990446781820F00CFB73
:104AA000214620F01DFB0746069820F005FB3946FD
:104AB00020F0E2FB4FF0FF3120F085FC20F0A8FA57
:104AC000F085039820F0A4FA002800DA404202287A
:104AD00007DC204620F09CFA002800DA4042022839
:104AE0002EDD01980024143881B20498224F143826
:104AF00080B2424600F05AF814214FF4784208463A
:104B000000F054F81DA1CDE900A17B883A881A2154
:104B10002820FFF710FB96F8300048B15FF0000046
:104B200086F8300030B11A4890210170D02105E09C
:104B30000120F5E71648D021017090214170BFE5B2
:104B40001F20CBF8000044464046FCF757FD11A15A
:104B5000CDE900A1084923204B880A886E21FFF780
:104B6000EAFA4FF47A7003F0DBFA00F057F92046C6
:104B7000FCF744FDFCE50000D00200205450204E1C
:104B800065656420726561646A7573742100000054
:104B900020000020546F7563682053637265656E52
:104BA0002041646A757374204F4B21002DE9F04158
:104BB000044619480D460B46026004F10D0082B20E
:104BC000193880B2FCF7CEFD05F10D0083B219381B
:104BD00081B222461046FCF7C5FD6E1C04F10108A7
:104BE000B1B21FFA88F0FCF70BFEB1B2661EB0B28C
:104BF000FCF706FE6F1EB9B21FFA88F0FCF700FE44
:104C0000B9B2B0B2FCF7FCFD29462046BDE8F04140
:104C10000622FCF703BE00001800002010B5362065
:104C2000FBF794FC0A2801D0002010BD0E22094990
:104C30002820FBF77AFC07489022243890F830307F
:104C4000001FD02113B10270417001E00170427069
:104C5000012010BD480000200B4910B5A1F10A0049
:104C600000F08AF8FBF75FFCFFF7D8FF08B10020DF
:104C700010BD4FF6FF70FCF7C1FCFFF7EDFCFFF72E
:104C8000CDFF012010BD00003A0000202DE9F047C3
:104C900000271E4D3C463E46C5F88471DFF8708003
:104CA000C8F8A471C8F8AC7105F5C27500F01EF91A
:104CB000062003F043FA2E60012003F03FFA4FF084
:104CC0000109C5F80090484603F038FA2E60B24654
:104CD0004E464FF6FF79A5F5C27500BF09EA4404B8
:104CE000C5F884A1012003F029FAC5F88461D5F83C
:104CF000080108B1641CA4B27F1CFFB2102FEDD3D1
:104D00002009C8F8AC61BDE8F087000000802142AE
:104D100000802342FEB5064600256C463046FFF76C
:104D2000B5FF24F815006D1CADB2052DF6D300209B
:104D3000431C99B20CE000BF34F8102034F8115035
:104D4000AA4203D924F8105024F81120491C89B232
:104D50000529F1D398B20428EAD300215FF00100BD
:104D600034F81020401C114480B289B20428F7D3D3
:104D70000320B1FBF0F0FEBD2DE9F041074C0646E3
:104D80000D462078FFF7C6FF07466078FFF7C2FFA1
:104D9000378028800120BDE8F0810000200000203D
:104DA0007FB50C460546694602A8FFF7E5FF0028D7
:104DB0002FD001A903A8FFF7DFFF002829D0BDF8F5
:104DC0000C30BDF80820934203D803F13200824230
:104DD00005D39A421FD802F1320083421BD2BDF89C
:104DE0000410BDF80000814203D801F13206B04240
:104DF00004D388420FD8323081420CD2D0184008F8
:104E00002880BDF80000BDF8041008444008208048
:104E1000012004B070BD0020FBE7000010B50E2299
:104E200004492820FBF7B3FB0A21BDE810403620D7
:104E3000FBF7BDBB4800002070B502462948D0F8FA
:104E40002801294C40B194F8200001063DD520F0FE
:104E5000800084F820003FE0234800F116010C3068
:104E600012B1FFF79DFF24E0FFF79AFF08B3B4F9F2
:104E70002C0020F009F90546A08920F01DF9616A8F
:104E800020F02EF929461FF099FF20F0DDF8A081CF
:104E9000B4F92E0020F0F8F80546E08A20F00CF96D
:104EA000A16A20F01DF929461FF088FF20F0CCF8F8
:104EB000E08294F8200000060ED4C02084F8200080
:104EC000A089A082E08AE08306E00020A082E0833F
:104ED0004FF6FF70A081E08294F8200000F080007F
:104EE00070BD000000802342240000202DE9F0471F
:104EF0000024DFF838900E4E054627464FF0010893
:104F0000280602D5C9F8A48101E0C9F8A471680691
:104F1000050EC6F88471012003F010F9C6F88481EB
:104F2000641CE4B2082CEBD3BDE8F0870080234278
:104F300000802142FEE70907090E002804DB00F18A
:104F4000E02080F80014704700F00F0000F1E0202E
:104F500080F8141D704770B5044600256FF02F06C9
:104F600008E02068411C2160007805EB850106EB14
:104F7000410145182068007800F004F80028F0D1BD
:104F8000284670BD3038092801D80120704700201C
:104F90007047000010B54421074801F0DBF90022FA
:104FA0001E2106481BF024F8054CA06002F070F9A1
:104FB0000020207010BD00005C0400204973000830
:104FC000C001002070B5B1F90030B2F90040A34231
:104FD00000DC23460380B1F90250B2F90240A54239
:104FE00000DD2C464480B1F90460B2F90450AE42B1
:104FF00000DA35468580B1F90610B2F906209142F3
:1050000000DB1146C1800120AB4201DC8C4200DD97
:10501000002070BDF8B50D460446B0F90000B1F9A6
:1050200000101646884247DBB4F90210B5F9022099
:10503000914241DBB4F90410B5F9042091423BDC04
:10504000B4F90610B5F90620914235DC96B3ADF8F7
:1050500000006088ADF8020032466946284600F03C
:1050600049F8002827D0A088ADF800006088ADF886
:10507000020032466946284600F03CF800281AD063
:105080002088ADF80000E088ADF80200324669469D
:10509000284600F02FF800280DD0A088ADF80000B9
:1050A000E088ADF8020032466946284600F022F852
:1050B000002800D00120F8BD0020F8BDB0F9002084
:1050C000B1F904309A4213DCB0F90420B1F9003090
:1050D0009A420DDBB0F90220B1F906309A4207DCA2
:1050E000B0F90600B1F90210884201DB01207047D7
:1050F000002070472DE9FC4114460E46B1F900200E
:10510000B0F9001005468A423ADBB5F90400824244
:1051100036DCB6F90270B5F90220974230DBB5F9FA
:1051200006309F422CDC002C75DD401A9A1A401C78
:10513000521C00B212B200EBD07002EBD2724010DF
:105140005210904200DB1046844200DD0446ADF868
:105150000010288800222044ADF804006888ADF8CB
:105160000200688831462044ADF806006846FFF723
:10517000C1FF40B1BDF804002044ADF804003FE099
:105180000020BDE8FC81E8880022001BADF8020089
:10519000E888ADF8060031466846FFF7ABFF28B156
:1051A000BDF804002044ADF8040011E0A8880022F6
:1051B000001BADF80000A888ADF804003146684631
:1051C000FFF798FF50B1BDF80000001BADF80000DC
:1051D000BDF80200001BADF8020016E06888ADF8CB
:1051E0000200688800222044ADF806003146684677
:1051F000FFF780FF70B1BDF80000001BADF80000A4
:10520000BDF806002044ADF806003146684618F0A7
:10521000B9FAB6E7FFE70120B3E710B5B1F90040EE
:10522000B2F900309C4200DA23460380B1F9024013
:10523000B2F902309C4200DA23464380B1F90440BF
:10524000B2F904309C4200DD23468380B1F9061098
:10525000B2F90620914200DC1146C18010BD2DE953
:10526000FF4F87B01D46DDE91476DDF858908B4678
:10527000022E52D3002F50D001F0B2FA80460FF028
:10528000FFFC00F11004D0F808A0D8F80000416A33
:1052900001B188475A4604A80799FFF793FE0028F2
:1052A0003BD0BDF810002188401A01B2ADF81010B3
:1052B000BDF812006288801AADF81200BDF8140023
:1052C0002288801A00B2ADF81400BDF81620638859
:1052D000D21AADF816209DB1D8F80020127A5207E4
:1052E0000ED4401A401C01B2002007E02A5C802A3C
:1052F00001D9FF2200E000222A54401C8842F5DB3D
:10530000D8F80000406958B1CDE90065029704AAB9
:1053100051462046099B09F04BFC0BB0BDE8F08FCD
:10532000B9F1000F0AD001A8009680E8A00204AAF3
:1053300051462046099B09F0B9F9EEE7CDE9006531
:10534000029704AA51462046099B09F04BFAE4E76C
:105350002DE9FF4F87B01D46DDE91476DDF858A032
:105360009146022E54D3002F52D0014605A8089A28
:10537000FFF728FE00284BD001F032FA80460FF0EC
:105380007FFC00F11004D0F808B0D8F80000416AA2
:1053900001B18847BDF814002188401A01B2ADF868
:1053A0001410BDF816006288801AADF81600BDF81A
:1053B00018002288801A00B2ADF81800BDF81A2033
:1053C0006388D21AADF81A209DB1D8F80020127A5D
:1053D00052070ED4401A401C01B2002007E02A5C9C
:1053E000802A01D9FF2200E000222A54401C884272
:1053F000F5DBD8F80000406968B1CDF8009003975C
:10540000CDE9016505AA59462046089B1BF046FDDB
:105410000BB0BDE8F08FBAF1000F0BD002A805AABF
:1054200080E8A004CDE9009659462046089B1BF071
:10543000E7FAEDE7CDF800900397CDE9016505AAFD
:1054400059462046089B1BF08BFBE1E7F0B589B07D
:1054500004461AF069FD0746E0688E4C0026E061BC
:10546000006918F02BF9E069406908B118F026F9D5
:10547000E069C06918F022F9E069006A18F01EF9C5
:10548000E0690025016971B318F08EFB18F00AFB82
:10549000E069B0F85011F9B10068007AC00701D096
:1054A00003F040FCE0694FF48071303014F0EEFB03
:1054B000E069202100F5987014F0E8FBE069A0F89D
:1054C000505138461AF02AFD0646E06900688369A3
:1054D00013B13146A269984714F01AFA00F00AF99C
:1054E000206828B13EE0FFE7A0F8505109B0F0BDB8
:1054F00014F013F813F026F900227F21206018F031
:1055000008F80EF051FD01460022206817F0F0FF68
:105510000FF051F801460022206818F05CF80022D4
:105520000321206818F046F800220321206818F0B3
:1055300029F800220321206818F030F80022032106
:10554000206818F031F800220321206818F03DF897
:1055500051A1206813F062FF00231A46062120683B
:1055600014F036FD60681AF0D9FC4FF49677B84213
:105570000BD2A06941F28831884230D9A06830440A
:10558000A060E068401CE06029E01AF0CDFC60609B
:10559000E0694FF47A7140680068B1FBF0F0A168EF
:1055A00009B90121A160E168E1B14FF47A72514378
:1055B000A268B1FBF2F6A560E560864200D9064616
:1055C000606A30446062206A401C20621AF070FDFC
:1055D000C0F16403324631A1206813F056FF206900
:1055E00010B136E00646E6E713F097FF13F0AAF88D
:1055F00000227F21206117F08CFF0EF0D5FC0146C0
:105600000022206917F074FF0EF0D5FF014600223A
:10561000206917F0E0FF00220321206917F0CAFF7C
:1056200000220321206917F0ADFF00220321206929
:1056300017F0B4FF00220321206917F0B5FF16A16F
:10564000206913F0EBFE00231A460421206914F0B0
:10565000BFFC60691AF062FCB8427FF647AF1AF0EF
:1056600063FC606102A814F0E3F904990298401AFF
:10567000820A514200EB81206621B0FBF1F39DF8D4
:1056800021109DF82000CDE9000108A1206913F048
:10569000FCFE2BE7880000203F0000002564204628
:1056A00050530A25642525204350550025642E2596
:1056B00064206B42207573656420282564202525AD
:1056C000290A2564252520667261672E00000000E6
:1056D00007490122496807E04B68834202D00B6802
:1056E000834200D10A7649690029F5D1704700004C
:1056F0005C000020704700000421014800F02ABE31
:10570000500400201C21014800F024BE6804002041
:105710002DE9FF5F0446DDE90E0613B9B0F5807F81
:105720007ED0B6F900504FF0FF376D42454307EB8E
:1057300025252DB22580B6F902C0CCF1000C0CFB5A
:1057400000FC07EB2C273FB26780B6F900C0A1EB45
:105750000C0141434FF0020C0CEB212109B2A18056
:10576000B6F90280A2EB080242430CEB222000B201
:10577000E080002B7ED04FF00A0A93FBFAF56842D6
:1057800000EB800003EB400705F1010928B21AF095
:105790004BFE00900FFA89F01AF046FE83465A3508
:1057A00028B21AF041FE804609F15A0000B21AF000
:1057B0003BFE0146009AC7F10A0000FB02F300FB22
:1057C00008F00BFB073301FB070193FBFAF291FB97
:1057D000FAF04FEA601AB4F90010B4F902000AFBBB
:1057E00001FCCDF80CC05511378805FB10C207EB42
:1057F000A2220FFA82F905FB01F2BB4602927788DA
:105800000AFB002107EBA1210BB2B4F90410BE463C
:105810000AFB01FC05FB10C20BEBA22216B200E052
:105820002FE005FB01F7CDE9007CB4F90680DDF837
:105830000CC00AFB007005FB18C1DDF804C0009F16
:1058400005FB18C5029A0AFB087C0AFB08220BEB31
:10585000A1210EEBAC270EEBA02009B20EEBA22289
:105860000BEBA5250FFA87FC00B212B22DB24F4602
:10587000494500E00EE000DA0F46B54216DAA846C8
:1058800015E000202080491E6080A180521EE28029
:10589000BDE8FF9F32882A44228072883A446280A1
:1058A00032881144A180718808444FE0B0464745D2
:1058B00004DA4F46494506DA0F4604E0B54201DAFC
:1058C0002F4600E0374627804F46494500DD0F460A
:1058D000B54201DDA84600E0B046474503DD4D4630
:1058E000494505DC01E0B54201DD294600E03146CD
:1058F000A1809A4201DA154600E01D46844501DA8E
:10590000614600E001468D4205DA9A4201DA11460D
:1059100006E0194604E0844501DA614600E00146EC
:1059200061809A4201DD114600E01946844501DD9F
:10593000654600E00546A94205DD9A4201DD1046B4
:1059400004E0184602E0844500DD6046E0809FE701
:105950002DE9FE4F0446D0F800B0B0F90800E58903
:10596000081AB4F90A10511AD4E90932B5F5807F42
:105970003AD0A589002DA56B05FB00F005FB01F5CC
:105980004FEA60104FEA65113CD0266BE56A06FBD2
:1059900000F705FB1177454306FB015003EBA729F0
:1059A00002EBA020B4F904104FEA29270612804622
:1059B000B9424ADD002F48DBB4F90600B04244DDAD
:1059C000002E42DB94F83400420741D5820704F1EF
:1059D00014001BD401FB067102224D0092460BEB12
:1059E000050114F009F921E0266BE56A06FB00F7D2
:1059F00005FB1177454306FB015003EBA70902EBBA
:105A0000A000CFE703EB00095018CBE701FB0671BC
:105A100001EB41054FF0030A0BEB0501022214F0E4
:105A2000EBF8E81C584410F8010CA07594F8340009
:105A3000C00723D00022FF2110460EF027FC009063
:105A4000BDF80000A18A814218D10020BDE8FE8F78
:105A500032B204F118002369CDE90102002539B200
:105A6000AA468B4611F00EFE0090BDF80000A08201
:105A7000DDE90102594611F09DFDD6E7E07C78B1E1
:105A8000A4F83C90A4F83E80A4F84070A4F84260CA
:105A9000656484F848A02046BDE8FE4F00F002B8D7
:105AA0000120D3E72DE9F04F044690F83C10D0F8E0
:105AB000009090F83E0087B04FF0FF36702907DA6B
:105AC000B4F940203546012A00D5002580310DE08B
:105AD000902916DDB4F94020B4F904300125521C98
